{
  "contractName": "PriceOracle",
  "abi": [
    {
      "inputs": [],
      "stateMutability": "nonpayable",
      "type": "constructor"
    },
    {
      "inputs": [],
      "name": "getLatestPrice",
      "outputs": [
        {
          "internalType": "int256",
          "name": "",
          "type": "int256"
        }
      ],
      "stateMutability": "view",
      "type": "function",
      "constant": true
    }
  ],
  "bytecode": "0x608060405234801561001057600080fd5b50739326bfa02add2366b30bacb125260af6410313316000806101000a81548173ffffffffffffffffffffffffffffffffffffffff021916908373ffffffffffffffffffffffffffffffffffffffff16021790555061016b806100746000396000f3fe608060405234801561001057600080fd5b506004361061002b5760003560e01c80638e15f47314610030575b600080fd5b61003861004e565b6040518082815260200191505060405180910390f35b60008060008060008060008054906101000a900473ffffffffffffffffffffffffffffffffffffffff1673ffffffffffffffffffffffffffffffffffffffff1663feaf968c6040518163ffffffff1660e01b815260040160a06040518083038186803b1580156100bd57600080fd5b505afa1580156100d1573d6000803e3d6000fd5b505050506040513d60a08110156100e757600080fd5b8101908080519060200190929190805190602001909291908051906020019092919080519060200190929190805190602001909291905050509450945094509450945083955050505050509056fea26469706673582212204a26a7bb7418e961f6db223c20f929bbfa27edfec9eca833ada668f590c41ebf64736f6c634300060c0033",
  "immutableReferences": {},
  "source": "// SPDX-License-Identifier: MIT\r\npragma solidity 0.6.12;\r\n\r\ninterface AggregatorV3Interface {\r\n\r\n  function decimals()\r\n    external\r\n    view\r\n    returns (\r\n      uint8\r\n    );\r\n\r\n  function description()\r\n    external\r\n    view\r\n    returns (\r\n      string memory\r\n    );\r\n\r\n  function version()\r\n    external\r\n    view\r\n    returns (\r\n      uint256\r\n    );\r\n\r\n  // getRoundData and latestRoundData should both raise \"No data present\"\r\n  // if they do not have data to report, instead of returning unset values\r\n  // which could be misinterpreted as actual reported values.\r\n  function getRoundData(\r\n    uint80 _roundId\r\n  )\r\n    external\r\n    view\r\n    returns (\r\n      uint80 roundId,\r\n      int256 answer,\r\n      uint256 startedAt,\r\n      uint256 updatedAt,\r\n      uint80 answeredInRound\r\n    );\r\n\r\n  function latestRoundData()\r\n    external\r\n    view\r\n    returns (\r\n      uint80 roundId,\r\n      int256 answer,\r\n      uint256 startedAt,\r\n      uint256 updatedAt,\r\n      uint80 answeredInRound\r\n    );\r\n\r\n}\r\n\r\ncontract PriceOracle {\r\n\r\n    AggregatorV3Interface internal priceFeed;\r\n\r\n    /**\r\n     * Network: Kovan\r\n     * Aggregator: ETH/USD\r\n     * Address: 0x9326BFA02ADD2366b30bacB125260Af641031331\r\n     */\r\n    constructor() public {\r\n        priceFeed = AggregatorV3Interface(0x9326BFA02ADD2366b30bacB125260Af641031331);\r\n    }\r\n\r\n    /**\r\n     * Returns the latest price\r\n     */\r\n    function getLatestPrice() public view returns (int) {\r\n        (\r\n            uint80 roundID, \r\n            int price,\r\n            uint startedAt,\r\n            uint timeStamp,\r\n            uint80 answeredInRound\r\n        ) = priceFeed.latestRoundData();\r\n        return price;\r\n    }\r\n}\r\n",
  "sourcePath": "C:/Users/Rushang/Desktop/asc/oracle_chainlink/contracts/oracle.sol",
  "compiler": {
    "name": "solc",
    "version": "0.6.12+commit.27d51765.Emscripten.clang"
  },
  "schemaVersion": "3.4.1",
  "updatedAt": "2021-08-13T05:21:51.451Z",
  "networkType": "ethereum",
  "devdoc": {
    "kind": "dev",
    "methods": {},
    "version": 1
  },
  "userdoc": {
    "kind": "user",
    "methods": {
      "constructor": "Network: Kovan Aggregator: ETH/USD Address: 0x9326BFA02ADD2366b30bacB125260Af641031331",
      "getLatestPrice()": {
        "notice": "Returns the latest price"
      }
    },
    "version": 1
  }
}